:020000040800F2
:1000000000800020CD360008DD2D0008E92D000815
:10001000F12D0008F92D0008012E00080000000055
:10002000000000000000000000000000092E000891
:10003000172E000800000000252E0008332E0008AF
:100040001D3700081D3700081D3700081D37000840
:100050001D3700081D3700081D3700081D37000830
:100060001D3700081D3700081D3700081D37000820
:100070001D3700081D3700081D3700081D37000810
:100080001D3700081D3700081D3700081D37000800
:10009000412E00081D3700081D3700081D370008D5
:1000A0001D3700081D3700081D3700081D370008E0
:1000B000552E00081D3700081D3700081D370008A1
:1000C0001D3700081D3700081D3700081D370008C0
:1000D0001D3700081D3700081D3700081D370008B0
:1000E0001D3700081D3700081D3700081D370008A0
:1000F0001D3700081D3700081D3700081D37000890
:100100000000000000000000000000001D37000893
:100110001D3700081D3700081D3700081D3700086F
:100120001D3700081D3700081D3700081D3700085F
:100130001D3700081D370008000000000000000007
:100140001D3700081D3700081D370008000000009B
:10015000000000000000000000000000000000009F
:1001600000000000000000001D3700081D370008D7
:100170001D37000800000000000000000000000023
:08018000000000001D3700081B
:1001880010B5054C237833B9044B13B10448AFF3C9
:1001980000800123237010BD200000200000000013
:1001A8000CA5000808B5034B1BB103490348AFF37E
:1001B800008008BD00000000240000200CA50008F5
:1001C80081F0004102E000BF83F0004330B54FEA00
:1001D80041044FEA430594EA050F08BF90EA020F6D
:1001E8001FBF54EA000C55EA020C7FEA645C7FEA00
:1001F800655C00F0E2804FEA5454D4EB5555B8BF23
:100208006D420CDD2C4480EA020281EA030382EA93
:10021800000083EA010180EA020281EA0303362D25
:1002280088BF30BD11F0004F4FEA01314FF4801CF8
:100238004CEA113102D0404261EB410113F0004F0A
:100248004FEA03334CEA133302D0524263EB4303C1
:1002580094EA050F00F0A780A4F10104D5F1200E5F
:100268000DDB02FA0EFC22FA05F2801841F10001BA
:1002780003FA0EF2801843FA05F359410EE0A5F18E
:1002880020050EF1200E012A03FA0EFC28BF4CF0BF
:10029800020C43FA05F3C01851EBE37101F0004575
:1002A80007D54FF0000EDCF1000C7EEB00006EEB82
:1002B8000101B1F5801F1BD3B1F5001F0CD349080C
:1002C8005FEA30004FEA3C0C04F101044FEA445263
:1002D80012F5800F80F09A80BCF1004F08BF5FEAEA
:1002E800500C50F1000041EB045141EA050130BDCA
:1002F8005FEA4C0C404141EB0101013C28BFB1F5DC
:10030800801FE9D291F0000F04BF01460020B1FA26
:1003180081F308BF2033A3F10B03B3F120020CDAF9
:100328000C3208DD02F1140CC2F10C0201FA0CF0D7
:1003380021FA02F10CE002F11402D8BFC2F1200C3C
:1003480001FA02F120FA0CFCDCBF41EA0C019040F2
:10035800E41AA2BF01EB0451294330BD6FEA04043B
:100368001F3C1CDA0C340EDC04F11404C4F1200226
:1003780020FA04F001FA02F340EA030021FA04F338
:1003880045EA030130BDC4F10C04C4F1200220FA8F
:1003980002F001FA04F340EA0300294630BD21FACD
:1003A80004F0294630BD94F0000F83F4801306BF93
:1003B80081F480110134013D4EE77FEA645C18BF87
:1003C8007FEA655C29D094EA050F08BF90EA020F1E
:1003D80005D054EA000C04BF1946104630BD91EA16
:1003E800030F1EBF0021002030BD5FEA545C05D119
:1003F8004000494128BF41F0004130BD14F5800458
:100408003CBF01F5801130BD01F0004545F0FE41CB
:1004180041F470014FF0000030BD7FEA645C1ABF00
:10042800194610467FEA655C1CBF0B46024650EA37
:10043800013406BF52EA033591EA030F41F4002163
:1004480030BD00BF90F0000F04BF0021704730B5E9
:100458004FF4806404F132044FF000054FF00001BE
:1004680050E700BF90F0000F04BF0021704730B57F
:100478004FF4806404F1320410F0004548BF404254
:100488004FF000013EE700BF42004FEAE2014FEAA9
:1004980031014FEA02701FBF12F07F4393F07F4F84
:1004A80081F06051704732F07F4208BF704793F087
:1004B8007F4F04BF41F40021704730B54FF460749A
:1004C80001F0004521F000411CE700BF50EA01029D
:1004D80008BF704730B54FF000050AE050EA010246
:1004E80008BF704730B511F0004502D5404261EBB6
:1004F80041014FF4806404F132045FEA915C3FF4F7
:10050800D8AE4FF003025FEADC0C18BF03325FEA93
:10051800DC0C18BF033202EBDC02C2F1200300FA44
:1005280003FC20FA02F001FA03FE40EA0E0021FA69
:1005380002F11444BDE600BF70B54FF0FF0C4CF457
:10054800E06C1CEA11541DBF1CEA135594EA0C0F09
:1005580095EA0C0F00F0DEF82C4481EA030621EA44
:100568004C5123EA4C5350EA013518BF52EA03357F
:1005780041F4801143F4801338D0A0FB02CE4FF031
:100588000005E1FB02E506F00042E0FB03E54FF061
:100598000006E1FB03569CF0000F18BF4EF0010E59
:1005A800A4F1FF04B6F5007F64F5407404D25FEA55
:1005B8004E0E6D4146EB060642EAC62141EA555108
:1005C8004FEAC52040EA5E504FEACE2EB4F1FD0C4A
:1005D80088BFBCF5E06F1ED8BEF1004F08BF5FEAC8
:1005E800500E50F1000041EB045170BD06F000467A
:1005F80046EA010140EA020081EA0301B4EB5C0427
:10060800C2BFD4EB0C0541EA045170BD41F480111E
:100618004FF0000E013C00F3AB8014F1360FDEBF43
:10062800002001F0004170BDC4F10004203C35DA1F
:100638000C341BDC04F11404C4F1200500FA05F3A2
:1006480020FA04F001FA05F240EA020001F0004243
:1006580021F0004110EBD37021FA04F642EB0601B9
:100668005EEA430E08BF20EAD37070BDC4F10C04E3
:10067800C4F1200500FA04F320FA05F001FA04F2A7
:1006880040EA020001F0004110EBD37041F1000193
:100698005EEA430E08BF20EAD37070BDC4F120059E
:1006A80000FA05F24EEA020E20FA04F301FA05F206
:1006B80043EA020321FA04F001F0004121FA04F2AE
:1006C80020EA020000EBD3705EEA430E08BF20EA7E
:1006D800D37070BD94F0000F0FD101F000464000B8
:1006E80041EB010111F4801F08BF013CF7D041EA3A
:1006F800060195F0000F18BF704703F0004652003E
:1007080043EB030313F4801F08BF013DF7D043EA0E
:100718000603704794EA0C0F0CEA135518BF95EAC4
:100728000C0F0CD050EA410618BF52EA4306D1D14B
:1007380081EA030101F000414FF0000070BD50EA6A
:10074800410606BF1046194652EA430619D094EAF4
:100758000C0F02D150EA013613D195EA0C0F05D1DE
:1007680052EA03361CBF104619460AD181EA030132
:1007780001F0004141F0FE4141F470014FF00000EA
:1007880070BD41F0FE4141F4780170BD70B54FF085
:10079800FF0C4CF4E06C1CEA11541DBF1CEA135505
:1007A80094EA0C0F95EA0C0F00F0A7F8A4EB0504E7
:1007B80081EA030E52EA03354FEA013100F08880DE
:1007C8004FEA03334FF0805545EA131343EA1263A7
:1007D8004FEA022245EA111545EA10654FEA00265C
:1007E8000EF000419D4208BF964244F1FD0404F515
:1007F800407402D25B084FEA3202B61A65EB030571
:100808005B084FEA32024FF480104FF4002CB6EB2D
:10081800020E75EB030E22BFB61A754640EA0C00AD
:100828005B084FEA3202B6EB020E75EB030E22BFED
:10083800B61A754640EA5C005B084FEA3202B6EB2E
:10084800020E75EB030E22BFB61A754640EA9C00ED
:100858005B084FEA3202B6EB020E75EB030E22BFBD
:10086800B61A754640EADC0055EA060E18D04FEA7B
:10087800051545EA16754FEA06164FEAC30343EA1B
:1008880052734FEAC2025FEA1C1CC0D111F4801FE8
:100898000BD141EA00014FF000004FF0004CB6E7E1
:1008A80011F4801F04BF01430020B4F1FD0C88BF80
:1008B800BCF5E06F3FF6AFAEB5EB030C04BFB6EB8B
:1008C800020C5FEA500C50F1000041EB045170BD7E
:1008D8000EF0004E4EEA113114EB5C04C2BFD4EBAB
:1008E8000C0541EA045170BD41F480114FF0000E2F
:1008F800013C90E645EA060E8DE60CEA135594EAAB
:100908000C0F08BF95EA0C0F3FF43BAF94EA0C0FAD
:100918000AD150EA01347FF434AF95EA0C0F7FF422
:1009280025AF104619462CE795EA0C0F06D152EA76
:1009380003353FF4FDAE1046194622E750EA41065A
:1009480018BF52EA43067FF4C5AE50EA41047FF46B
:100958000DAF52EA43057FF4EBAE12E74FF0FF3CD0
:1009680006E000BF4FF0010C02E000BF4FF0010CA1
:100978004DF804CD4FEA410C7FEA6C5C4FEA430C1A
:1009880018BF7FEA6C5C1BD001B050EA410C0CBF69
:1009980052EA430C91EA030F02BF90EA020F0020CB
:1009A800704710F1000F91EA030F58BF994208BF32
:1009B80090422CBFD8176FEAE37040F001007047EF
:1009C8004FEA410C7FEA6C5C02D150EA013C07D146
:1009D8004FEA430C7FEA6C5CD6D152EA033CD3D091
:1009E8005DF8040B704700BF8446104662468C468B
:1009F8001946634600E000BF01B5FFF7B7FF0028BE
:100A080048BF10F1000F01BD4DF808EDFFF7F4FFE6
:100A18000CBF012000205DF808FB00BF4DF808ED71
:100A2800FFF7EAFF34BF012000205DF808FB00BF94
:100A38004DF808EDFFF7E0FF94BF012000205DF8B6
:100A480008FB00BF4DF808EDFFF7CEFF94BF01206B
:100A580000205DF808FB00BF4DF808EDFFF7C4FF64
:100A680034BF012000205DF808FB00BF4FEA4102B7
:100A780012F5001215D211D56FF47873B3EB6252E8
:100A880012D94FEAC12343F0004343EA505311F00F
:100A9800004F23FA02F018BF404270474FF00000A1
:100AA800704750EA013005D111F0004008BF6FF0DF
:100AB800004070474FF00000704700BF4FEA410206
:100AC800B2F1E04324BFB3F5001CDCF1FE5C0DD9A4
:100AD80001F0004C4FEAC0024CEA5070B2F1004FEE
:100AE80040EB830008BF20F00100704711F0804FF1
:100AF80021D113F13872BCBF01F00040704741F4B6
:100B080080114FEA5252C2F11802C2F1200C10FAB9
:100B18000CF320FA02F018BF40F001004FEAC1239D
:100B28004FEAD32303FA0CFC40EA0C0023FA02F341
:100B38004FEA4303CCE77FEA625307D150EA013317
:100B48001EBF4FF0FE4040F44000704701F00040E7
:100B580040F0FE4040F40000704700BF7BB972B916
:100B68000029BEBF00204FF0004106E008BF002862
:100B78001CBF6FF000414FF0FF3000F09DB9ADF1A0
:100B8800080C6DE904CE002909DB002B1ADB00F004
:100B980035F8DDF804E0DDE9022304B0704740428F
:100BA80061EB4101002B1BDB00F028F8DDF804E0C5
:100BB800DDE9022304B0404261EB4101524263EB9C
:100BC80043037047524263EB430300F017F8DDF824
:100BD80004E0DDE9022304B0404261EB41017047C3
:100BE800524263EB430300F009F8DDF804E0DDE965
:100BF800022304B0524263EB430370472DE9F047E8
:100C0800089D0C46002B4ED194468C458646B2FA78
:100C180082F262D94AB1C2F12003914020FA03F36B
:100C28000CFA02FC194300FA02FE4FEA1C471FFAAD
:100C38008CF6B1FBF7F44FEA1E4307FB141143EAA5
:100C4800014304FB06F199420AD91CEB030304F1A2
:100C5800FF3080F01281994240F20F81023C6344D8
:100C6800591A1FFA8EF3B1FBF7F007FB101143EA8C
:100C7800014300FB06F69E420AD91CEB030300F170
:100C8800FF3180F0FC809E4240F2F98063440238D4
:100C98009B1B40EA044000211DB1D3400022C5E956
:100CA8000032BDE8F0878B4205D90DB1C5E90001D6
:100CB80000210846F5E7B3FA83F1002946D1A3429B
:100CC80002D39042C0F0F080861A64EB030301203F
:100CD800002DE6D0C5E90063E3E7002A40F09080E4
:100CE800A1EB0C044FEA1C481FFA8CF70121B4FB56
:100CF800F8F64FEA1E4308FB164443EA044307FB91
:100D080006F0984208D91CEB030306F1FF3402D21F
:100D1800984200F2CD8026461C1A1FFA8EF3B4FBC7
:100D2800F8F008FB104443EA044300FB07F79F422E
:100D380008D91CEB030300F1FF3402D29F4200F2F2
:100D4800B0802046DB1B40EA0640A5E7C1F120063B
:100D58008B4022FA06F71F4320FA06FC04FA01F337
:100D680043EA0C03F44000FA01F8380C4FEA13493F
:100D7800B4FBF0FE1FFA87FC00FB1E4449EA04445A
:100D88000EFB0CF9A14502FA01F20AD93C190EF141
:100D9800FF3A80F08480A14540F28180AEF1020ED6
:100DA8003C44A4EB09041FFA83F9B4FBF0F300FBFD
:100DB800134449EA044403FB0CFCA44507D93C1935
:100DC80003F1FF3067D2A44565D9023B3C4443EAAE
:100DD8000E40A0FB0293A4EB0C049C42CE469C461A
:100DE80051D34ED055B1B8EB0E0364EB0C0404FAA2
:100DF80006F6CB401E43CC40C5E90064002150E70D
:100E0800C2F1200320FA03F10CFA02FC24FA03F3DE
:100E180094400C434FEA1C4800FA02FE1FFA8CF774
:100E2800B3FBF8F008FB1031230C43EA014300FB45
:100E380007F1994208D91CEB030300F1FF362CD2C5
:100E480099422AD9023863445B1AA4B2B3FBF8F179
:100E580008FB113344EA034401FB07F3A34208D912
:100E68001CEB040401F1FF3613D2A34211D9023955
:100E78006444E41A41EA004139E70446F0E60846CA
:100E880006E7C845AED2B9EB020E63EB070C013892
:100E9800A8E73146EDE7034699E73046D4E7D6465A
:100EA8007FE7634402384DE70646234608460FE7C6
:100EB800023E634430E700BF704700BF80B586B08C
:100EC80000AF3B4600221A605A609A60DA601A61E5
:100ED8005A61274B274A1A60254B00225A60244B37
:100EE80000229A60224B00221A61214B00225A7676
:100EF8001F4B002283F820201D4B0022DA621C4B76
:100F080001229A621A4B0022DA60194B0122DA6137
:100F1800174B002283F83020154B04225A61144BDA
:100F280000221A76124B00225A63114802F07EFC06
:100F38000346002B01D001F028FA0C233B60012363
:100F48007B600023FB600023BB6000233B61002320
:100F58007B613B461946064802F05EFF0346002BBC
:100F680001D001F012FA00BF1837BD4680BD00BF9E
:100F78003C0000200001005080B58AB000AF7860C6
:100F880007F1140300221A605A609A60DA601A6145
:100F98007B681B68154A934223D1154B5B69144A39
:100FA80043F080535361124B5B6903F080533B61FC
:100FB8003B690F4B5B690E4A43F4802353610C4B2A
:100FC8005B6903F48023FB60FB6804237B610323D4
:100FD800BB610023FB6107F114031946054804F0BF
:100FE8003DFA00BF2837BD4680BD00BF0001005054
:100FF800001002400004004880B582B000AF0346EC
:101008000A46FB711346BB710A4B03221A610A4B4D
:1010180002221A70084AFB795370074ABB79937009
:10102800064B054A0349064803F0B3FC00BF0837DE
:10103800BD4680BD8C000020D0000020C0000020EC
:10104800E401002080B500AF064B01221A61064B6F
:1010580000221A70054B044A0249054803F099FC1E
:1010680000BF80BD8C000020D0000020C000002000
:10107800E4010020B0B586B000AF7860A44BA54A63
:101088000021786803F060FDA24B1B69FB60FB68D8
:10109800002B07D19E4B1B7819460120FFF7ACFFA8
:1010A80000F016BD9A4B1B781A469B4B9B5C1A4660
:1010B800FB68934216D0964B1B781A46964B9B5C5E
:1010C800002B07D1924B1B7819460020FFF794FF9D
:1010D80000F0FEBC8E4B1B7819460120FFF78CFFF1
:1010E80000F0F6BC8A4B1B78102B13D1884B5B7829
:1010F800FB7297F90B30642B04DC97F90B3013F172
:10110800640F07DA824B1B7819460520FFF774FF36
:1011180000F0DEBC7E4B1B78112B03D07C4B1B7878
:101128001A2B1BD17A4B5B781B021AB2784B9B782F
:101138001BB213433B81B7F90830784A934205DB69
:10114800B7F9083044F24F62934207DD704B1B78C1
:1011580019460520FFF750FF00F0BABC6C4B1B780E
:101168001B2B33D16A4B5A78694B9B789A4207D923
:10117800674B1B7819460520FFF73EFF00F0A8BC17
:10118800634B9B78642B07D9614B1B781946052064
:10119800FFF732FF00F09CBC5D4BDA785C4B1B79A3
:1011A8009A4207D95A4B1B7819460520FFF724FFA6
:1011B80000F08EBC564B1B79642B07D9544B1B7817
:1011C80019460520FFF718FF00F082BC544B1B7826
:1011D800002B23D14E4B1B78112B17D04C4B1B786F
:1011E800122B13D04A4B1B78182B0FD0484B1B7867
:1011F800192B0BD0464B1B781A2B07D0444B1B7866
:101208001B2B03D0424B1B781C2B07D1404B1B7860
:1012180019460220FFF7F0FE00F05ABC3C4B1B7841
:10122800102B07D03A4B1B78112B03D0384B1B7867
:10123800122B02D13B4B32221A604FF6FF73FB820E
:10124800334B1B781C2B23DC102BC0F2F981103B8D
:101258000C2B00F2F58101A252F823F0A11200082C
:101268009D130008C713000849160008491600080E
:1012780049160008491600084916000823140008F2
:10128800BB1400085315000883150008F915000859
:10129800FF2B00F0CB81D3E11D4B5B785AB2224B78
:1012A8001A70214B93F90020204B1A701E4B93F9AA
:1012B8000030002B02D01E4B00221A601A4B93F903
:1012C8000030012B05D0184B93F90030B3F1FF3FE4
:1012D80002D101F099F8B0E1134B93F90030002BDB
:1012E8002ADD114B93F900301846FFF7BBF84FF091
:1012F8000002104BFFF74AFA02460B4643EC172B45
:10130800B0EE470AF0EE670A01F046F895E100BF33
:10131800D8000020A4000020E4000020B0B9FFFF9E
:10132800520200200C02002050020020510200202E
:101338001002002000005940B14B93F90030002BF7
:101348000CD1B04B1B78002B02D001F087F874E168
:10135800AD4B00221A6001F057F86EE1A84B93F9E3
:101368000030002B80F26981A54B93F900301846B4
:10137800FFF778F84FF00002A44BFFF707FA024690
:101388000B4643EC172BB0EE470AF0EE670A01F064
:1013980003F852E19E4B5B781B029BB29C4A927801
:1013A80013449BB21BB2184600F008FD034603F530
:1013B8000033184601F030F80346FB8240E1944BB5
:1013C8005B781B029BB2924A927813449BB21AB282
:1013D800904B1A808F4BB3F90030002B04D101F0E9
:1013E8003DF80346FB822BE18A4BB3F900301846DF
:1013F800FFF738F84FF00002844BFFF7C7F90246B1
:101408000B4610461946FFF759FB034600EE103A03
:1014180001F048F80346FB8212E17D4B5B781B0222
:101428007B4A927813431846FFF71CF84FF00002E6
:10143800794BFFF7ABF902460B4610461946FFF702
:101448003DFB0446724BDB781B02714A1279134349
:101458001846FFF707F84FF000026C4BFFF796F9B4
:1014680002460B4610461946FFF728FB0546684B0F
:101478005B791B02664A927913431846FEF7F2FF1E
:101488004FF00002644BFFF781F902460B46104605
:101498001946FFF713FB0346012001EE103A00EE50
:1014A800905A00EE104A01F07BF95C4B01221A7049
:1014B800C6E0574B5B781B02554A9278134318468F
:1014C800FEF7D0FF4FF00002534BFFF75FF90246DB
:1014D8000B4610461946FFF7F1FA04464C4BDB78E9
:1014E8001B024B4A127913431846FEF7BBFF4FF015
:1014F8000002464BFFF74AF902460B4610461946CA
:10150800FFF7DCFA0546424B5B791B02404A9279A9
:1015180013431846FEF7A6FF4FF000023E4BFFF7B5
:1015280035F902460B4610461946FFF7C7FA034637
:10153800022001EE103A00EE905A00EE104A01F037
:101548002FF9364B01221A707AE0314B5B781B0277
:101558002F4A92781343324A1362314B1B6A1BB2EB
:10156800184600F02BFC03462E4A13602B4B012231
:101578001A702D4B01221A7062E0254B5A78244BC1
:101588009B789A4215D8224BDA78214B1B799A42DC
:101598000FD81F4B5B78642B0BD81D4B9B78642BA3
:1015A80007D81B4BDB78642B03D8194B1B79642BAA
:1015B80006D9174B1B7819460520FFF71DFD87E252
:1015C800134B5A78164B83F82420114B9A78144BF6
:1015D80083F825200E4BDA78114B83F826200C4B24
:1015E8001A790F4B83F827200C4B01221A7027E039
:1015F800074B5A780A4B1A77084B01221A701FE0DA
:101608005002002052020020100200200000594021
:10161800D8000020E000002000408F402402002075
:1016280028020020E40200205C020020AD4B5B7819
:10163800002B04D103F001FF01E000BF00E000BF70
:10164800A84B1B78012B40F01482A64B5B781C2B0F
:1016580000F2088201A252F823F000BFD916000850
:101668006D1A00086D1A00086D1A00086D1A000836
:101678006D1A00086D1A00086D1A00086D1A000826
:101688006D1A00086D1A00086D1A00086D1A000816
:101698006D1A00086D1A00086D1A0008ED1600088A
:1016A8000D17000865170008CF1700086D1A000805
:1016B8006D1A00086D1A00086D1A0008F117000865
:1016C800D5180008E7190008211A0008571A000859
:1016D8004FF6FF73FB82844B01221A61834B002271
:1016E8001A70C6E14FF6FF73FB827F4B02221A6124
:1016F8007E4B10221A707E4B93F90030DAB27B4B86
:101708005A70B6E17B4B1B78002B06D1754B1B78C2
:1017180019460220FFF770FCDAE14FF6FF73FB82EF
:10172800714B03221A61714B11221A70724B1B689C
:10173800184600F067FB03461A46704B1A806F4B39
:10174800B3F900301B121BB2DAB2684B5A706B4BFC
:10175800B3F90030DAB2654B9A708AE1654B1B78B1
:10176800002B06D15F4B1B7819460220FFF744FC7B
:10177800AEE14FF6FF73FB825B4B03221A615B4BB2
:1017880012221A705E4BD3ED007A9FED5E7A67EEF7
:10179800877AFDEEE77A17EE903A1BB21B121BB25E
:1017A800DAB2524B5A70564BD3ED007A9FED557A08
:1017B80067EE877AFDEEE77A17EE903A1BB2DAB257
:1017C8004A4B9A7055E14B4B1B78002B06D1454B81
:1017D8001B7819460220FFF70FFC79E14FF6FF73DB
:1017E800FB8200F07FFA44E1424B1B78002B06D1C4
:1017F8003C4B1B7819460220FFF7FEFB68E13A4B89
:1018080007221A61394B18221A703F4BD3ED017A1F
:101818009FED3E7A67EE877AFDEEE77A17EE903A0B
:101828001BB21B121BB2DAB2304B5A70364BD3EDD7
:10183800017A9FED367A67EE877AFDEEE77A17EE42
:10184800903A1BB2DAB2294B9A702F4BD3ED027A39
:101858009FED2C7A67EE877AFDEEE77A17EE903ADD
:101868001BB21B121BB2DAB2204BDA70264BD3ED37
:10187800027A9FED247A67EE877AFDEEE77A17EE13
:10188800903A1BB2DAB2194B1A711F4BD3ED037A97
:101898009FED1E7A67EE877AFDEEE77A17EE903AAB
:1018A8001BB21B121BB2DAB2104B5A71164BD3ED96
:1018B800037A9FED167A67EE877AFDEEE77A17EEE0
:1018C800903A1BB2DAB2094B9A71D2E0094B1B78F5
:1018D800002B1DD1034B1B7819460220FFF78CFB08
:1018E800F6E000BFD80000208C000020D0000020C7
:1018F800500200205202002014020020E2000020C2
:10190800180200200000C8422802002000007A4483
:10191800714B07221A61714B19221A70704BD3ED63
:10192800047A9FED707A67EE877AFDEEE77A17EE14
:10193800903A1BB21B121BB2DAB2684B5A70684B52
:10194800D3ED047A9FED677A67EE877AFDEEE77A42
:1019580017EE903A1BB2DAB2604B9A70604BD3ED37
:10196800057A9FED617A67EE877AFDEEE77A17EEE2
:10197800903A1BB21B121BB2DAB2584BDA70584BB2
:10198800D3ED057A9FED587A67EE877AFDEEE77A10
:1019980017EE903A1BB2DAB2504B1A71504BD3ED96
:1019A800067A9FED507A67EE877AFDEEE77A17EEB2
:1019B800903A1BB21B121BB2DAB2484B5A71484B11
:1019C800D3ED067A9FED477A67EE877AFDEEE77AE0
:1019D80017EE903A1BB2DAB2404B9A7149E0434B8A
:1019E8001B78002B06D1424B1B7819460220FFF7C3
:1019F80003FB6DE0384B03221A61384B1A221A7028
:101A0800374B1B6A1B12DAB2344B5A70344B1B6AC1
:101A1800DAB2324B9A702CE02F4B05221A612F4B09
:101A28001B221A702E4B93F824202C4B5A702C4BE7
:101A380093F82520294B9A70294B93F82620274B99
:101A4800DA70274B93F82720244B1A7111E0224BA8
:101A580002221A61214B1C221A70214B1A7F1F4B3C
:101A68005A7006E0224B1B7819460020FFF7C4FA8B
:101A780000BFB7F91630002B08DBFB8ADBB21C4A23
:101A8800127811461846FFF7B7FA21E0184B1B7871
:101A9800012B17D0174B1B690F4A136100233B61B9
:101AA8000BE0134A3B69134419780C4A3B69134409
:101AB8000A461A703B6901333B610E4B1A693B6950
:101AC8009A42EED80C4B054A0349786802F061FF48
:101AD8001837BD46B0BD00BF8C000020D0000020E4
:101AE8002802002000007A440000C8425202002068
:101AF800D8000020A4000020C000002080B58AB0D3
:101B080000AF4D4B02225A704B4B02221A744A4BBB
:101B180003225A74484B03229A74474B0622DA74FC
:101B2800454B07221A76444B07225A76424B03222A
:101B38009A76414B0522DA763F4B02221A773E4BC2
:101B4800022283F8FF203D4B3D4A1A603B4B082296
:101B58005A603A4B00229A60384B0022DA60374BC1
:101B68004FF400321A61354B4FF480025A61334BFF
:101B780000221A76314B00225A76304B00229A7690
:101B88002E4B0022DA762D4B00221A772B4B00229F
:101B98005A772A4802F0F4FC0346002B01D000F0E3
:101BA800F4FB01233B6200237B6100233B61254B4F
:101BB8001B785B013B6000237B604FF6E073BB60E2
:101BC8000023FB600023BB610123FB610E237B62C2
:101BD8003B461946194802F0CEFD0346002B01D0BA
:101BE80000F0D3FB154802F090FE0346002B01D00D
:101BF80000F0CBFB0221114803F0B8F80346002B94
:101C080001D000F0C2FB104B01221A610E4B0022DA
:101C18005A600D4B00229A600B4B0022DA60094B88
:101C28001B781A46084B1A60074B00221A7500BF2A
:101C38002837BD4680BD00BFE4000020E401002035
:101C480000640040000000208C00002080B58AB0AD
:101C580000AF786007F1140300221A605A609A6096
:101C6800DA601A617B681B681B4A934230D11B4BB0
:101C7800DB691A4A43F00073D361184BDB6903F040
:101C880000733B613B69154B5B69144A43F480233D
:101C98005361124B5B6903F48023FB60FB684FF4CC
:101CA80040737B610223BB610023FB6103233B621A
:101CB80009237B6207F114031946094803F0CEFB98
:101CC80000220021142003F08EFB142003F0A7FB50
:101CD80000BF2837BD4680BD0064004000100240A8
:101CE8000004004880B500AF254B06221A61254B39
:101CF80013221A70244B1B68184600F083F8034619
:101D08001A46224B1A80214BB3F900301B121BB222
:101D1800DAB21C4B5A701D4BB3F90030DAB2194BCA
:101D28009A701B4BD3ED007A9FED1A7A67EE877A8B
:101D3800FDEEE77A17EE903A1BB21B121BB2DAB22D
:101D4800104BDA70124BD3ED007A9FED127A67EEE2
:101D5800877AFDEEE77A17EE903A1BB2DAB2094BB2
:101D68001A710D4B93F90030DAB2064B5A710B4BCE
:101D7800044A03490A4802F00CFE00BF80BD00BFB8
:101D88008C000020D00000201C020020E20000206F
:101D9800200200200000C84251020020C00000209C
:101DA800E401002080B582B000AF786000210620F1
:101DB800FFF722F900BF0837BD4680BD80B582B065
:101DC80000AF0146F980B7F9061001F58C41503192
:101DD800C8170A4603464FF000004FF00001990467
:101DE80041EA9231900448F6A0424FF00003FEF712
:101DF800B5FE02460B461346A3F5003318460837CE
:101E0800BD4680BD2DE9B00F87B000AF78617B6912
:101E18000022BB60FA60D7E902234FF000004FF0C0
:101E28000001990041EA9271900002460B46B96898
:101E380012EB0108F96843EB01094FF000024FF07B
:101E480000034FEA091343EA18734FEA0812B2EB8A
:101E5800080463EB09054FF000024FF000032B0163
:101E680043EA14732201B2EB040A63EB050B4FF04B
:101E780000024FF000034FEA4B1343EADA634FEADC
:101E88004A1292469B4652465B46002B07DA0F4998
:101E98005118396043F100037B60D7E900234FF004
:101EA80000004FF00001900C40EA8330991402467C
:101EB8000B4693B2A3F58C43503B9BB21BB218461A
:101EC8001C37BD46BDE8B00F704700BFFFFF0300D9
:101ED80080B588B000AF07F10C0300221A605A6081
:101EE8009A60DA601A61304B5B692F4A43F48003C9
:101EF80053612D4B5B6903F48003BB60BB682A4BBD
:101F08005B69294A43F400335361274B5B6903F447
:101F180000337B607B68244B5B69234A43F480234E
:101F28005361214B5B6903F480233B603B680022CB
:101F38004FF4E0511D4803F00BFC00224FF4C05150
:101F48004FF0904003F004FC0323FB6000233B6147
:101F580001237B6107F10C031946144803F07EFA4C
:101F68004FF4E053FB6001233B6100237B610023B6
:101F7800BB6107F10C0319460C4803F06FFA4FF4E4
:101F8800C053FB6001233B6100237B610023BB61DD
:101F980007F10C0319464FF0904003F05FFA00BFB9
:101FA8002037BD4680BD00BF001002400004004835
:101FB80080B500AF1B4B1C4A1A601A4B1B4A5A606B
:101FC800184B00229A60174B0122DA60154B002249
:101FD8001A61144B00225A61124B00229A61114B6C
:101FE8000022DA610F4B00221A620E4803F0E2FB6E
:101FF8000346002B01D000F0C8F90021094804F07D
:10200800C3F80346002B01D000F0BFF900210548B2
:1020180004F005F90346002B01D000F0B6F900BF23
:1020280080BD00BF60020020005400400E0900205F
:1020380080B58AB000AF786007F1140300221A60F7
:102048005A609A60DA601A617B681B68264A934274
:1020580045D1264B5B69254A43F400335361234B32
:102068005B6903F400333B613B69204B5B691F4AA2
:1020780043F4802353611D4B5B6903F48023FB60A9
:10208800FB684FF400437B611223BB610023FB61B3
:1020980003233B6204237B6207F1140319464FF0C4
:1020A800904003F0DBF980237B611223BB6100239E
:1020B800FB6103233B6204237B6207F11403194687
:1020C8000B4803F0CBF9094BDB69084A43F40013CA
:1020D800D361064BDB6903F40013BB60BB6800BF28
:1020E8002837BD4680BD00BF0054004000100240A4
:1020F8000004004880B586B004AF28237B600C4BF1
:102108003B607B689BB26422029201933B68009318
:1021180001230022A021074803F0F0FC0346002B0E
:1021280001D1002300E0012318460837BD4680BDD1
:10213800280200206002002080B588B004AF282360
:10214800FB600023BB60254B7B603EE0FB68072BF0
:102158001EDDBB689AB264230293082301937B684F
:1021680000930123A0211E4803F0B4FB0346002B73
:102178000CD10A2001F036FB7B6808337B60FB68D2
:10218800083BFB60BB680833BB601EE0012320E00E
:10219800BB689AB2FB689BB26421029101937B6889
:1021A80000930123A0210E4803F094FB0346002B63
:1021B80009D10A2001F016FBFB687A6813447B609A
:1021C8000023FB6001E0012303E0FB68002BBDDC7A
:1021D800002318461037BD4680BD00BF28020020E6
:1021E8006002002080B586B000AF01F095FA00F0DB
:1021F80069F8FFF76DFEFEF761FEFFF77FFCFFF75A
:10220800D7FE00F0EFFB00F03DFE00F08DFE01F080
:102218009FF9254801F0EAFC4FF400614FF0904027
:1022280003F0AEFAFFF766FF0346002B03D11F4BFE
:102238001A781F4B1A70FFF761FC00237B6100239B
:102248003B614FF0FF33FB604FF0FF33BB60194B2E
:1022580001221A70184A3B4692E8030018600433BA
:10226800197039464FF0FF330522144807F004FD72
:102278007B69002B05D0FFF75FFF0346BB60002397
:102288007B613B69002B05D0FFF734FF0346FB60F9
:1022980000233B610A4B1B78002BE9D0FFF74CFF6A
:1022A800074B00221A70E3E73C00002028020020B8
:1022B800000000202502002024A50008200400209A
:1022C8002402002080B59EB000AF07F150032822F9
:1022D8000021184608F0E9F807F13C0300221A60CB
:1022E8005A609A60DA601A613B463C22002118461F
:1022F80008F0DBF803233B654FF480337B6500234C
:10230800BB6501233B6610237B660223FB664FF403
:1023180080333B674FF4E0137B6707F1500318469F
:1023280003F0CAFF0346002B01D000F02EF80F235C
:10233800FB6302233B6400237B644FF48063BB642C
:102348000023FB6407F13C030221184604F0F2FF66
:102358000346002B01D000F018F8A1233B600023AE
:10236800BB604FF480737B620023FB613B461846D9
:1023780005F04EFA0346002B01D000F006F805F0F0
:1023880055F900BF7837BD4680BD80B400AF72B63E
:1023980000BF00BFFDE7000080B582B000AF87ED49
:1023A800000B4FF00002164BD7E90001FEF754FB73
:1023B8000346002B1BD14FF00002124BD7E9000156
:1023C800FEF72CFB0346002B11D10BA3D3E9002306
:1023D800D7E90001FEF7B0F802460B461046194649
:1023E800FEF744FB0346184601F026F900E000BF5B
:1023F8000837BD4680BD00BF0000000040773B4164
:102408000000F03F0000F0BF80B500AF002001F0F1
:1024180013F900BF80BD000080B582B000AF7860BE
:102428007B68B3F5802F01D305230FE0094B1B68A8
:10243800012B03D000F08CF900F0DEF9064A7B6826
:102448001360044B01221A604FF0FF331846083717
:10245800BD4680BD100200201402002080B500AFE8
:102468000C4B1B68042B08D00B4B1B681A460B4BF4
:102478001A6000F06DF900F0BFF9084B1B681A46A6
:10248800074B1A60034B04221A604FF0FF331846BB
:1024980080BD00BF100200201C020020580200204E
:1024A8001402002080B582B000AF87ED010A0C4B02
:1024B8001B68022B07D000F05FF900F09DF9094B6B
:1024C8001B68094A1360094A7B681360044B02229F
:1024D8001A604FF0FF3318460837BD4680BD00BF6D
:1024E800100200201C0200205402002018020020C4
:1024F800B0B582B000AF786039607B685B423968FC
:10250800184600F08FF9F0EE407A8B4BC3ED007A55
:10251800894BD3ED007AB7EE007AF4EEC77AF1EE84
:1025280010FA03DD844B4FF07E521A60824BD3EDD4
:10253800007ABFEE007AF4EEC77AF1EE10FA02D50F
:102548007D4B7E4A1A607C4BD3ED007AF5EEC07A5B
:10255800F1EE10FA35D57A4B93F827301A46784BB6
:1025680093F82630D31A07EE903AB8EEE77A724B12
:10257800D3ED007A67EE277A9FED727AC7EE876A05
:1025880016EE900AFDF780FF04460D466C4B93F853
:1025980026301846FDF766FF4FF000026A4BFEF73B
:1025A800F5F802460B4620462946FDF70DFE024681
:1025B8000B4610461946FEF781FA03465E4A136039
:1025C80034E05F4B93F825301A465D4B93F824307E
:1025D800D31A07EE903AB8EEE77A574BD3ED007A64
:1025E80067EE277A9FED577AC7EE876A16EE900A4C
:1025F800FDF74AFF04460D46514B93F82430184620
:10260800FDF730FF4FF000024F4BFEF7BFF80246D0
:102618000B4620462946FDF7D9FD02460B461046D3
:102628001946FEF74BFA0346434A1360424B1B68B0
:102638001846FDF729FF4FF00002434BFDF77CFFDA
:1026480002460B4610461946FEF710FA03465AB2E0
:102658003E4B1A70384B1B681846FDF715FF0446A9
:102668000D46374B93F824301846FDF7FBFE4FF024
:102678000002354BFEF78AF802460B46104619460B
:102688002BA3D3E90023FDF7A1FD02460B46204604
:102698002946FEF7E1F90346002B0BD0264B1B68B1
:1026A8001846FDF7F1FE02460B4643EC102BFFF7E8
:1026B80073FE37E0204B1B681846FDF7E5FE04461D
:1026C8000D461F4B93F826305B421846FDF7CAFEAD
:1026D8004FF000021C4BFEF759F802460B46104615
:1026E800194613A3D3E90023FDF76EFD02460B46F6
:1026F80020462946FEF792F90346002B10D00E4BD0
:10270800D3ED007AF1EE677A17EE903A1846FDF7A6
:10271800BBFE02460B4643EC102BFFF73DFE01E0E3
:10272800FFF772FE00BF0837BD46B0BDAFF30080AB
:102738007B14AE47E17A843FAC020020000080BFE2
:10274800280200200000C842000059405102002021
:1027580080B400AF054B064A1A60064B01221A6086
:1027680000BFBD465DF8047B704700BFD002002063
:102778002C020020D402002080B400AF054B064A8A
:102788001A60064B02221A6000BFBD465DF8047B42
:10279800704700BFD002002038020020D402002079
:1027A80080B485B000AF87ED030AC7ED020A87ED54
:1027B800011A38603B68012B09D10E4AFB68536047
:1027C8000C4ABB6893600B4A7B68D3600BE03B689C
:1027D800022B08D1074AFB681361064ABB6853619C
:1027E800044A7B68936100BF1437BD465DF8047BDB
:1027F800704700BF2802002080B400AF07494FF09F
:1028080000024FF00003C1E90023054B00221A60C3
:1028180000BFBD465DF8047B704700BFC8020020BA
:10282800C0020020B0B582B000AF78603960614B5B
:102838001B683A689A420FD03B68012B06D1FFF714
:1028480087FF5D4B4FF085421A6005E0FFF794FF64
:10285800594B4FF07E521A607868FDF703FE044624
:102868000D46554B1B681846FDF70EFE4FF000024B
:10287800524BFDF761FE02460B4620462946FDF7FE
:1028880085FF02460B46104619464D4BD3E90023F7
:10289800FDF79CFC02460B464949C1E90023494B18
:1028A8001B6893ED007A7B6807EE903AF8EEE77ABA
:1028B80067EE277A444BC3ED007A424B1B685B688E
:1028C8001846FDF7E1FD3E4BD3E90023FDF734FE42
:1028D80002460B4610461946FEF7F0F803463B4AF7
:1028E8001360384B1B6893ED027A394B1B687A6882
:1028F800D31A07EE903AF8EEE77A67EE277A354B67
:10290800C3ED007A344B1B6807EE903AB8EEE77ACD
:102918002E4BD3ED007AB4EEE77AF1EE10FA09D82F
:102928002D4B1B6807EE903AF8EEE77A274BC3ED7C
:10293800007A18E0284B1B685B4207EE903AB8EE25
:10294800E77A224BD3ED007AB4EEE77AF1EE10FA8B
:1029580009DB214B1B685B4207EE903AF8EEE77AF9
:102968001A4BC3ED007A1D4B1B6801331B4A1360D9
:102978001A4B1B680A2B05DD154A7B681360174B39
:1029880000221A60104B93ED007A104BD3ED007AB9
:1029980037EE277A0F4BD3ED007A77EE277A9FED43
:1029A800107AC7EE876AF0EE667AB0EE670A0837E3
:1029B800BD46B0BDD40200200400002000408F4076
:1029C800C8020020D0020020B0020020B40200207B
:1029D800C0020020B802002008000020BC0200202D
:1029E80000007A4480B500AF1B4B1C4A1A601A4B92
:1029F8004FF482725A60184B4FF480629A60164BFB
:102A08004FF4E062DA60144B00221A61124B012283
:102A18005A61114B4FF400729A610F4B3822DA61F8
:102A28000D4B00221A620C4B00225A620A4B0022FC
:102A38009A62094B0722DA62074B00221A63064B97
:102A480008225A63044805F093F80346002B01D086
:102A5800FFF79BFC00BF80BDEC020020003800405F
:102A680080B58AB000AF786007F1140300221A60BD
:102A78005A609A60DA601A617B681B68174A934249
:102A880028D1174BDB69164A43F48043D361144BB2
:102A9800DB6903F480433B613B69114B5B69104A76
:102AA80043F4802353610E4B5B6903F48023FB607E
:102AB800FB684FF4C0437B610223BB610023FB61C9
:102AC80003233B6205237B6207F11403194605487B
:102AD80002F0C4FC00BF2837BD4680BD0038004066
:102AE800001002400004004880B485B000AFC7E978
:102AF80000010023FB730023BB73D7E900014FF0EB
:102B080000024FF000030A0E00231346FB73D7E9B7
:102B180000014FF000024FF000030A0C0023134697
:102B2800BB73FB7B364AD25CBB7B5340FB73D7E954
:102B380000014FF000024FF000030A0A0023134679
:102B4800BB73FB7B2E4AD25CBB7B5340FB73D7E93C
:102B580000014FF000024FF000030A000023134663
:102B6800BB73FB7B264AD25CBB7B5340FB73D7E924
:102B780000014FF000024FF00003020E42EA01226A
:102B88000B0E1346BB73FB7B1D4AD25CBB7B5340C9
:102B9800FB73D7E900014FF000024FF00003020C6D
:102BA80042EA01420B0C1346BB73FB7B144AD25C0E
:102BB800BB7B5340FB73D7E900014FF000024FF095
:102BC8000003020A42EA01620B0A1346BB73FB7B4D
:102BD8000B4AD25CBB7B5340FB733B68BB73FB7BEC
:102BE800074AD25CBB7B5340FB73FB7B044AD35C34
:102BF800BB73BB7B18461437BD465DF8047B704732
:102C08002CA50008B0B586B000AF00224FF4805163
:102C1800544802F09DFD0023FB8203E000BFFB8ABD
:102C28000133FB82FB8AB3F5B97FF7D3642304220F
:102C38004D494E4805F047F80346002B07D00122BE
:102C48004FF48051474802F083FDFFF79EFB0122B5
:102C58004FF48051434802F07BFD434B1B781A0424
:102C6800414B5B781B0213433F4A92781343FB6046
:102C7800FB6800221C46154620462946FFF734FF0C
:102C88000346DB43DAB23A4B1A70374BDA78384BE3
:102C98001B789A4205D0374B00221A70364B1B68B6
:102CA8005CE0FB689B09BB602F4B9B785B08DBB241
:102CB80003F00103FB712C4B9B7803F00103BB71FC
:102CC800FB79002B02D12C4B1B6847E02B4B1B6870
:102CD8001A46BB681344C3F31103294A1360284BEF
:102CE8001A68254B1B68D31A3B613B69B3F5003F53
:102CF80004DD3B69A3F580233B6107E03B6913F5DD
:102D0800003F03DA3B6903F580233B611D4B1B78C9
:102D1800012B14D81C4B1B78002B10D13B69002BBE
:102D2800B8BF5B424EF66022934208DD154B1B7814
:102D38000133DAB2134B1A700F4B1B680EE0104BBD
:102D48001B680D4A13600B4B01221A700E4B0022B0
:102D58001A700C4B00221A70094B1B68184618375A
:102D6800BD46B0BD00040048D8020020EC02002097
:102D7800E9020020520200201C020020E402002088
:102D8800E0020020E80200205C02002080B483B04A
:102D980000AF0F4B9B690E4A43F0010393610C4B44
:102DA8009B6903F001037B607B68094BDB69084A78
:102DB80043F08053D361064BDB6903F080533B60DB
:102DC8003B6800BF0C37BD465DF8047B704700BF09
:102DD8000010024080B500AF04F0FEFC00BFFDE724
:102DE80080B400AF00BFFDE780B400AF00BFFDE7CF
:102DF80080B400AF00BFFDE780B400AF00BFFDE7BF
:102E080080B400AF00BFBD465DF8047B704780B456
:102E180000AF00BFBD465DF8047B704780B400AFCB
:102E280000BFBD465DF8047B704780B500AF00F079
:102E3800B9FC00BF80BD000080B500AF024801F0BA
:102E4800BBFF00BF80BD00BFE401002080B500AF1C
:102E5800024805F05BFE00BF80BD00BF880300206C
:102E680080B400AF064BD3F88830054A43F47003AA
:102E7800C2F8883000BFBD465DF8047B704700BFCC
:102E880000ED00E080B588B000AF07F11003002224
:102E98001A605A609A60DA603B1D00221A605A6014
:102EA8009A601F4B4FF080421A601D4B01225A60F6
:102EB8001B4B00229A601A4B1A4ADA60184B002200
:102EC8001A61174B00229A61154805F0FBFB03466F
:102ED800002B01D0FFF759FA4FF480533B6107F1FB
:102EE800100319460E4806F045F80346002B01D09A
:102EF800FFF74BFA00237B600023FB603B1D19465C
:102F0800074806F04FFD0346002B01D0FFF73DFAB6
:102F1800034805F02FFC00BF2037BD4680BD00BF29
:102F280088030020407E050080B592B000AF07F10D
:102F38002C0300221A605A609A60DA601A615A619A
:102F48009A613B462C220021184607F0AEFA334B13
:102F5800334A1A60314B00225A60304B00229A6083
:102F68002E4B4FF6FF72DA602C4B00221A612B4B66
:102F780000225A61294B00229A61284805F0A2FBD9
:102F88000346002B01D0FFF700FA244805F05CFC4B
:102F98000346002B01D0FFF7F8F96023FB620023FA
:102FA8003B6300237B630023BB630023FB63002395
:102FB8003B6400237B6407F12C0300221946174861
:102FC80005F0C4FE0346002B01D0FFF7DEF900230D
:102FD8003B6000237B600023BB600023FB60002371
:102FE8003B614FF400537B610023BB610023BB624C
:102FF8003B461946094806F055FD0346002B01D00B
:10300800FFF7C3F90021054805F080FC034800F0EC
:1030180041F800BF4837BD4680BD00BFD40300203B
:103028000048014080B584B000AF78607B681B68B9
:10303800B3F1804F14D1154BDB69144A43F00103F7
:10304800D361124BDB6903F00103FB60FB680022CC
:1030580000211C2002F0C7F91C2002F0E0F910E062
:103068007B681B680A4A93420BD1084B9B69074A45
:1030780043F480239361054B9B6903F48023BB6071
:10308800BB6800BF1037BD4680BD00BF00100240BE
:103098000048014080B588B000AF786007F10C03A4
:1030A80000221A605A609A60DA601A617B681B68AD
:1030B800114A93421CD1114B5B69104A43F4003307
:1030C80053610E4B5B6903F40033BB60BB6880231C
:1030D800FB6002233B6100237B610023BB6101236A
:1030E800FB6107F10C0319464FF0904002F0B6F966
:1030F80000BF2037BD4680BD004801400010024097
:10310800B0B584B000AF7860644B1B78002B00F03A
:10311800FB81634B1B680133614A1360604B1B687A
:10312800092B04DD5E4B00221A60FDF78BFF4FF47C
:1031380080514FF0904002F023FB5A4B1B68013B33
:10314800584A1360574B1B68002B07DAFFF75CF9E6
:10315800554B00221A60534B00221A60FFF752FDAC
:1031680003461A46514B1A60504B1B68B3F1FF3F98
:1031780000F0F5804E4B1B78012B0CD14B4B1A6895
:103188004C4B1B68D31A002B05DD484B1B68013BD1
:10319800484A136037E0464B1B78012B0FD1454B4B
:1031A8001A68424B1B68D31A012B08DD3F4B1B687A
:1031B8000133404A13603E4B00221A7023E03C4B17
:1031C8001B78002B0CD13B4B1A68384B1B68D31A61
:1031D800002B05DD354B1B680133364A136012E0BE
:1031E800334B1B78002B0ED1304B1A68314B1B68C0
:1031F800D31A012B07DD2D4B1B68013B2D4A1360A9
:103208002B4B01221A702B4B1B68284A13602A4B40
:103218001B78012B07D1254B1B681A46274B1A60D0
:10322800254B00221A70214B1B681A46234B1B683A
:10323800D31AFB60FB68B3F5003F03DBFB68A3F51B
:103248008023FB60FB6813F5003F03DCFB6803F594
:103258008023FB60154B1B681A46184B1A60184BE5
:103268001B781946174AFB6842F82130144B1B7823
:103278000133DAB2124B1A70114B1B78042B02D9A6
:103288000F4B00221A7010494FF000024FF0000354
:10329800C1E900230023BB602CE000BF2502002009
:1032A800540300200C0200201002002058030020C4
:1032B8008003002084030020100000205402002016
:1032C800740300206003002078030020904ABB6844
:1032D80052F823301846FDF7C5F88E4BD3E9002382
:1032E800FCF774FF02460B468A49C1E90023BB6814
:1032F8000133BB60BB68042BE8DD864BD3E90001D2
:103308004FF00002844BFDF717F902460B461046B2
:1033180019464FF00002814BFDF738FA02460B467A
:10332800104619464FF000027D4BFDF72FFA024672
:103338000B46104619464FF000027A4BFDF7FCF891
:1033480002460B467349C1E90023724BD3E90023B7
:1033580010461946FDF7B2FB0346734A1360734BD8
:103368001B68B3F1FF3F68D0714B1B68012B03D07A
:103378006F4B1B68042B60D16C4B1B681A466D4B56
:103388001B68D31A1A466C4B1A606B4B1B68B3F553
:10339800003F05DB684B1B68A3F58023664A136072
:1033A800654B1B6813F5003F05DC634B1B6803F591
:1033B8008023614A1360604B1B6813F1400F12DAD7
:1033C8005E4BD3E900014FF000024FF00003FDF718
:1033D80025FB0346002B06D058494FF000024FF05A
:1033E8000003C1E90023544B1B68402B12DD534BEB
:1033F800D3E900014FF000024FF00003FDF72CFB6A
:103408000346002B06D04D494FF000024FF0000351
:10341800C1E90023484B1B683F2B07DC464B1B6860
:1034280013F13F0F02DB444B00221A60424B1B682A
:1034380001211846FFF75CF848E03C4B1B68B3F1E4
:10344800FF3F43D03A4B1B68022B3FD13C4BD3ED97
:10345800007AF5EE407AF1EE10FA0ED1324BD3ED48
:10346800007AF5EE407AF1EE10FA06D133494FF0C2
:1034780000024FF00003C1E90023314BD3ED007A7D
:103488009FED307A67EE877AF1EE677A17EE903A19
:103498001846FCF7F9FF04460D461E4BD3E9000118
:1034A8004FF000021C4BFDF747F802460B4620463A
:1034B8002946FCF78BFE02460B4610461946FDF7D7
:1034C800D5FA034602211846FFF712F8174B1B6876
:1034D800B3F1FF3F19D01C4B1B68002B04D1134BD1
:1034E8001B681846FEF7FEFB174B1B680133164A8C
:1034F8001360164B1B7F1A46134B1B689A4204DC59
:10350800114B00221A6000E000BF1037BD46B0BD65
:103518006003002078030020000059400000144098
:103528000000104100004E402002002058030020F7
:1035380010020020140200205C030020C8020020B2
:10354800180200200000C842500300202802002072
:1035580080B500AF144B154A1A60134B4FF4E13293
:103568005A60114B00229A600F4B0022DA600E4B12
:1035780000221A610C4B0C225A610B4B00229A61F3
:10358800094B0022DA61084B00221A62064B00221E
:103598005A62054806F022FB0346002B01D0FEF7CD
:1035A800F4FE00BF80BD00BF2004002000380140A9
:1035B80080B58AB000AF786007F1140300221A6062
:1035C8005A609A60DA601A617B681B68184A9342ED
:1035D80029D1184B9B69174A43F480439361154BD3
:1035E8009B6903F480433B613B69124B5B69114A59
:1035F80043F4003353610F4B5B6903F40033FB6002
:10360800FB684FF4C0637B610223BB610023FB614D
:1036180003233B6207237B6207F1140319464FF02B
:10362800904001F01BFF00BF2837BD4680BD00BF9A
:10363800003801400010024080B586B000AF7860C5
:103648003E233B74A2237B740123BB740423FB74C5
:103658003A7C7B7C1344DAB2BB7C1344DAB2FB7C41
:103668001344DBB23B757B68DBB23B727B681B1291
:10367800DBB27B727B681B14DBB2BB727B681B0EF0
:10368800DBB2FB723A7A7B7A1344DAB2BB7A134420
:10369800DAB2FB7A1344DBB23B7307F110016423FF
:1036A8000522074806F0E8FA07F108016423052215
:1036B800034806F0E1FA034618461837BD4680BDB0
:1036C80020040020DFF834D00D480E490E4A0023AC
:1036D80002E0D458C4500433C4188C42F9D30B4ABE
:1036E8000B4C002301E013600432A242FBD3FFF726
:1036F800B7FB06F0E3FEFEF775FDFEE7008000204D
:10370800000000201C00002074A6000820000020F3
:10371800A8040020FEE7000080B500AF084B1B6836
:10372800074A43F010031360032001F051FE0F20F5
:1037380000F008F8FFF72AFB0023184680BD00BFF9
:103748000020024080B582B000AF7860124B1A6842
:10375800124B1B7819464FF47A73B3FBF1F3B2FBA3
:10376800F3F3184601F06DFE0346002B01D0012348
:103778000EE07B680F2B0AD8002279684FF0FF30E3
:1037880001F031FE064A7B681360002300E0012344
:1037980018460837BD4680BD0C00002018000020E0
:1037A8001400002080B400AF064B1B781A46064B65
:1037B8001B681344044A136000BFBD465DF8047BD0
:1037C800704700BF18000020A404002080B400AF98
:1037D800034B1B681846BD465DF8047B704700BF65
:1037E800A404002080B584B000AF7860FFF7EEFF36
:1037F800B8607B68FB60FB68B3F1FF3F05D00A4BFC
:103808001B781A46FB681344FB6000BFFFF7DEFF16
:103818000246BB68D31AFA689A42F7D800BF00BFBD
:103828001037BD4680BD00BF1800002080B59AB093
:1038380000AF7860002387F8673000233B660023D9
:10384800BB607B68002B01D10123C9E17B681B6940
:10385800002B7B681B6C03F01003002B76D17B6870
:103868001B6C002B52D17B6800225A647B680022B3
:10387800DA647B6800229A647B68002283F83C2023
:103888007868FDF779FB7B681B689B6803F08053B9
:10389800002B3BD1786800F00DFE034687F86730AF
:1038A8007B681B6C03F01003002B2FD197F867304F
:1038B800002B2BD17B681B6C23F4885323F0020365
:1038C80043F002027B681A647B681B689A687B680D
:1038D8001B6822F040529A607B681B689A687B6874
:1038E8001B6842F080529A60864B1B68864AA2FB8E
:1038F80003239A0C13469B0013445B00BB6002E051
:10390800BB68013BBB60BB68002BF9D17B681B68B7
:103918009B6803F08053002B07D07B681B689B686B
:1039280003F00053B3F1005F10D17B681B6C23F0E8
:10393800120343F010027B681A647B685B6C43F0E7
:1039480001027B685A64012387F867307B681B6C27
:1039580003F01003002B40F0368197F86730002BF6
:1039680040F031817B681B689B6803F00403002BDF
:1039780040F029817B681B6C23F4817343F00202B9
:103988007B681A647B681B68B3F1A04F04D07B681E
:103998001B685E4A934201D15D4B00E05D4BFB65BD
:1039A8007B681B68B3F1A04F02D1584BFB601AE04B
:1039B8007B681B68554A934203D14FF0A043FB60D4
:1039C80011E07B681B68544A934202D1534BFB6059
:1039D80009E07B681B68514A934202D14E4BFB6059
:1039E80001E00023FB607B681B689B6803F003030E
:1039F800012B08D17B681B681B6803F00103012BAE
:103A080001D1012300E00023002B1CD1FB68002B0F
:103A180010D0FB689B6803F00303012B07D1FB68F8
:103A28001B6803F00103012B01D1012300E00023EF
:103A3800002B08D1FB6D9B6823F440327B685B68E0
:103A48001A43FB6D9A607B685B7E5B037A68526BF6
:103A5800012A02D04FF4805200E000221A437B680A
:103A6800DB681A437B689B6813433A6E13433B66D3
:103A78007B6893F82030012B1BD17B685B7E002B81
:103A880009D17B685B6A013B5A043B6E134343F4DC
:103A980080333B660DE07B681B6C23F0220343F008
:103AA80020027B681A647B685B6C43F001027B68C8
:103AB8005A647B689B6A012B3AD07B681B68164A5C
:103AC800934204D07B681B68144A934228D17B68D0
:103AD8009B6AB3F5307F12D07B689B6AB3F5807F11
:103AE8000AD07B689B6AB3F5E07F02D07B689B6A4B
:103AF80018E04FF4807315E04FF4307312E04FF480
:103B0800E0730FE00C00002083DE1B43000100502F
:103B1800000300500007005000040050000500504A
:103B28007B689B6A7A68D26A13433A6E13433B6692
:103B38007B681B689B6803F00C03002B14D17B681F
:103B48001B68DB687A68126823F4804323F0020359
:103B5800D3607B681B7E9A037B6893F830305B00E8
:103B680013433A6E13433B667B681B68DA681E4B47
:103B780013407A681268396E0B43D3607B681B69FF
:103B8800012B0CD17B681B681B6B23F00F017B6832
:103B9800DB695A1E7B681B680A431A6307E07B6867
:103BA8001B681A6B7B681B6822F00F021A637B681C
:103BB80000225A647B681B6C23F0030343F0010264
:103BC8007B681A640AE07B681B6C23F0120343F0DD
:103BD80010027B681A64012387F8673097F867300A
:103BE80018466837BD4680BD07C0F0FF80B584B071
:103BF80000AF78600023FB737B681B689B6803F049
:103C08000403002B40F0F9807B6893F83C30012BCB
:103C180001D10223F4E07B68012283F83C20786814
:103C280000F0E4FB0346FB73FB7B002B40F0E080D5
:103C38007B681B6C23F4706323F0010343F48072E8
:103C48007B681A647B681B68B3F1A04F04D07B685B
:103C58001B686D4A934206D16C4B9B6803F01F03A7
:103C6800002B10D005E06A4B9B6803F01F03002B64
:103C780009D07B681B68B3F1A04F04D07B681B6830
:103C8800644A934215D17B681B6C23F480127B68CD
:103C98001A647B681B68DB6803F00073002B36D05E
:103CA8007B681B6C23F4405343F480527B681A648E
:103CB8002DE07B681B6C43F480127B681A647B6878
:103CC8001B68B3F1A04F04D07B681B684E4A93422F
:103CD8000AD14FF0A043DB6803F00073002B14BF38
:103CE80001230023DBB208E04A4BDB6803F00073D2
:103CF800002B14BF01230023DBB2002B07D07B6805
:103D08001B6C23F4405343F480527B681A647B682D
:103D18001B6C03F48053B3F5805F06D17B685B6C42
:103D280023F006027B685A6402E07B6800225A642A
:103D38007B68002283F83C207B681B681C221A6081
:103D48007B681B68B3F1A04F04D07B681B682E4AC0
:103D5800934206D12D4B9B6803F01F03002B3ED0E6
:103D680005E02B4B9B6803F01F03002B37D07B68C3
:103D78001B68B3F1A04F04D07B681B68224A9342AA
:103D880006D1224B9B6803F01F03052B27D005E0C3
:103D98001F4B9B6803F01F03052B20D07B681B6813
:103DA800B3F1A04F04D07B681B68174A934206D131
:103DB800164B9B6803F01F03092B10D005E0144B2A
:103DC8009B6803F01F03092B09D07B681B68B3F1BC
:103DD800A04F04D07B681B680E4A93420FD17B68C2
:103DE8001B689A687B681B6842F004029A6006E0C8
:103DF8007B68002283F83C2001E00223FB73FB7BF5
:103E080018461037BD4680BD000100500003005021
:103E1800000700500004005080B49BB000AF7860E9
:103E28003960002387F867300023BB607B6893F80C
:103E38003C30012B01D10223C8E27B68012283F8C0
:103E48003C207B681B689B6803F00403002B40F050
:103E5800AC823B685B68042B1CD87B681B68196BB9
:103E68003B685A6813465B0013445B001A461F23DD
:103E78009340DB4319403B6818683B685A6813460F
:103E88005B0013445B0000FA03F27B681B680A437B
:103E98001A6363E03B685B68092B1ED87B681B6864
:103EA800596B3B685A6813465B0013445B001E3B22
:103EB8001F2202FA03F3DB4319403B6818683B688A
:103EC8005A6813465B0013445B001E3B00FA03F27A
:103ED8007B681B680A435A6340E03B685B680E2BAB
:103EE8001ED87B681B68996B3B685A6813465B0051
:103EF80013445B003C3B1F2202FA03F3DB431940E7
:103F08003B6818683B685A6813465B0013445B00BB
:103F18003C3B00FA03F27B681B680A439A631DE086
:103F28007B681B68D96B3B685A6813465B0013446F
:103F38005B005A3B1F2202FA03F3DB4319403B683C
:103F480018683B685A6813465B0013445B005A3B89
:103F580000FA03F27B681B680A43DA637B681B6814
:103F68009B6803F00C03002B40F0E5803B681B685E
:103F7800092B1CD97B681B6899693B681A6813462A
:103F88005B0013441E3B072202FA03F3DB4319408C
:103F98003B6898683B681A6813465B0013441E3BED
:103FA80000FA03F27B681B680A439A6119E07B6890
:103FB8001B6859693B681A6813465B00134407225B
:103FC80002FA03F3DB4319403B6898683B681A68B8
:103FD80013465B00134400FA03F27B681B680A432C
:103FE8005A613B685A697B681B68DB68DB0803F029
:103FF80003035B0002FA03F33B663B681B69013B62
:10400800032B4FD801A252F823F000BF2540000827
:1040180047400008694000088B4000087B681B681F
:104028001A6E994B13403A68126891063A6E0A4321
:104038001A437B681B6842F000421A667BE07B6883
:104048001B685A6E904B13403A68126891063A6E94
:104058000A431A437B681B6842F000425A666AE0CA
:104068007B681B689A6E884B13403A681268910601
:104078003A6E0A431A437B681B6842F000429A660C
:1040880059E07B681B68DA6E7F4B13403A68126808
:1040980091063A6E0A431A437B681B6842F0004255
:1040A800DA6648E07B681B681B6E03F0F8423B68E1
:1040B8001B689B069A4207D17B681B681A6E7B684F
:1040C8001B6822F000421A667B681B685B6E03F06F
:1040D800F8423B681B689B069A4207D17B681B68BD
:1040E8005A6E7B681B6822F000425A667B681B6820
:1040F8009B6E03F0F8423B681B689B069A4207D107
:104108007B681B689A6E7B681B6822F000429A667F
:104118007B681B68DB6E03F0F8423B681B689B06F4
:104128009A4207D17B681B68DA6E7B681B6822F0AD
:104138000042DA6600BF7B681B689B6803F00303D4
:10414800012B08D17B681B681B6803F00103012B56
:1041580001D1012300E00023002B40F031813B68AE
:10416800DB68012B0FD07B681B68D3F8B0103B6865
:104178001B68012202FA03F3DA437B681B680A40D2
:10418800C3F8B02049E07B681B68D3F8B0103B68DF
:104198001B6801229A407B681B680A43C3F8B02059
:1041A8003B681B68092B1CD97B681B6899693B68AD
:1041B8001A6813465B0013441B3B072202FA03F3F9
:1041C800DB4319403B6898683B681A6813465B00F4
:1041D80013441B3B00FA03F27B681B680A439A618D
:1041E8001BE07B681B6859693B681B685A1C1346AF
:1041F8005B001344072202FA03F3DB4319403B68D0
:1042080098683B681B685A1C13465B00134400FA05
:1042180003F27B681B680A435A617B681B68B3F129
:10422800A04F04D07B681B68184A934201D1184BF1
:1042380000E0184BFB653B681B68102B05D1FB6D34
:104248009B6803F40003002B15D03B681B68112BF7
:1042580005D1FB6D9B6803F08073002B0BD03B6886
:104268001B68122B40F0AC80FB6D9B6803F4800345
:10427800002B40F0A5807B681B68B3F1A04F0BD1E1
:10428800024BFB6023E000BF00F0FF8300010050F9
:1042980000030050000700507B681B684E4A934299
:1042A80003D14FF0A043FB6011E07B681B684B4AC9
:1042B800934202D14A4BFB6009E07B681B68484A7D
:1042C800934202D1454BFB6001E00023FB607B6811
:1042D8001B689B6803F00303012B08D17B681B68EC
:1042E8001B6803F00103012B01D1012300E0002327
:1042F800002B50D1FB68002B10D0FB689B6803F0A3
:104308000303012B07D1FB681B6803F00103012B92
:1043180001D1012300E00023002B3CD13B681B683E
:10432800102B1DD17B681B68B3F1A04F18D1FB6D12
:104338009B6843F40002FB6D9A602A4B1B682A4A6B
:10434800A2FB03239A0C13469B0013445B00BB603B
:1043580002E0BB68013BBB60BB68002BF9D12EE0D3
:104368003B681B68112B0BD17B681B68B3F1A04F0E
:1043780006D1FB6D9B6843F08072FB6D9A601EE06E
:104388003B681B68122B1AD1FB6D9B6843F48002B3
:10439800FB6D9A6013E07B681B6C43F020027B681E
:1043A8001A64012387F867300AE07B681B6C43F0C6
:1043B80020027B681A64012387F8673000E000BF99
:1043C8007B68002283F83C2097F8673018466C37E2
:1043D800BD465DF8047B70470001005000040050A2
:1043E800000500500C00002083DE1B4380B584B01C
:1043F80000AF78600023FB607B681B689B6803F054
:104408000303012B08D17B681B681B6803F00103B9
:10441800012B01D1012300E00023002B43D17B684D
:104428001B689A68224B1340002B0DD07B681B6CCD
:1044380043F010027B681A647B685B6C43F00102EE
:104448007B685A6401232FE07B681B689A687B6845
:104458001B6842F001029A60FFF7B8F9F8601BE0A8
:10446800FFF7B4F90246FB68D31A022B14D97B680C
:104478001B681B6803F00103012B0DD07B681B6CC4
:1044880043F010027B681A647B685B6C43F001029E
:104498007B685A64012307E07B681B681B6803F08C
:1044A8000103012BDCD1002318461037BD4680BD1F
:1044B8003F00008080B584B000AF78600023FB60C7
:1044C8007B681B689B6803F00303012B08D17B689A
:1044D8001B681B6803F00103012B01D1012300E0D5
:1044E8000023002B47D07B681B689B6803F00D03F3
:1044F800012B0FD17B681B689A687B681B6842F0A8
:1045080002029A607B681B6803221A60FFF75EF953
:10451800F86029E07B681B6C43F010027B681A6422
:104528007B685B6C43F001027B685A64012323E0DB
:10453800FFF74CF90246FB68D31A022B14D97B68A3
:104548001B689B6803F00103012B0DD17B681B6C72
:1045580043F010027B681A647B685B6C43F00102CD
:104568007B685A64012307E07B681B689B6803F03B
:104578000103012BDCD0002318461037BD4680BD4F
:1045880080B584B000AF78607B68002B01D101232F
:10459800EDE07B6893F82030DBB2002B02D178681D
:1045A800FDF754FB7B681B681A687B681B6842F040
:1045B80001021A60FFF70AF9F86012E0FFF706F93E
:1045C8000246FB68D31A0A2B0BD97B685B6A43F453
:1045D80000327B685A627B68052283F82020012319
:1045E800C5E07B681B685B6803F00103002BE5D01E
:1045F8007B681B681A687B681B6822F002021A60D5
:10460800FFF7E4F8F86012E0FFF7E0F80246FB680D
:10461800D31A0A2B0BD97B685B6A43F400327B6898
:104628005A627B68052283F8202001239FE07B687B
:104638001B685B6803F00203002BE5D17B681B7ED7
:10464800012B08D17B681B681A687B681B6842F0DD
:1046580080021A6007E07B681B681A687B681B6821
:1046680022F080021A607B685B7E012B08D17B6890
:104678001B681A687B681B6842F040021A6007E0F2
:104688007B681B681A687B681B6822F040021A6006
:104698007B689B7E012B08D17B681B681A687B6846
:1046A8001B6842F020021A6007E07B681B681A68E2
:1046B8007B681B6822F020021A607B68DB7E012B76
:1046C80008D17B681B681A687B681B6822F0100297
:1046D8001A6007E07B681B681A687B681B6842F0F1
:1046E80010021A607B681B7F012B08D17B681B684E
:1046F8001A687B681B6842F008021A6007E07B684A
:104708001B681A687B681B6822F008021A607B68BD
:104718005B7F012B08D17B681B681A687B681B6864
:1047280042F004021A6007E07B681B681A687B681D
:104738001B6822F004021A607B689A687B68DB6851
:104748001A437B681B691A437B685B6942EA030169
:104758007B685B685A1E7B681B680A43DA617B6862
:1047680000225A627B68012283F820200023184621
:104778001037BD4680BD80B487B000AF786039601F
:104788007B681B687B617B6893F82030FB74FB7C3B
:10479800012B03D0FB7C022B40F0AA807B69D3F865
:1047A800003243F001027B69C3F800223B685B6971
:1047B80003F01F03012202FA03F3FB607B69D3F8BD
:1047C8001C22FB68DB431A407B69C3F81C223B6848
:1047D800DB69002B23D17B69D3F80C22FB68DB4310
:1047E8001A407B69C3F80C223B68DB6819043B68F4
:1047F8005B689BB23A68526919437B69483243F84F
:1048080032103B689B6819043B681B689AB23B6886
:104818005B690A4379694833DB000B445A603B689B
:10482800DB69012B22D17B69D3F80C22FB681A4380
:104838007B69C3F80C223B681B6819043B685B68FA
:104848009BB23A68526919437B69483243F832107F
:104858003B689B6819043B68DB689AB23B685B69F4
:104868000A4379694833DB000B445A603B689B690B
:10487800002B09D17B69D3F80422FB68DB431A407B
:104888007B69C3F8042207E07B69D3F80422FB683C
:104898001A437B69C3F804223B681B69002B09D1C2
:1048A8007B69D3F81422FB68DB431A407B69C3F8A1
:1048B800142207E07B69D3F81422FB681A437B694A
:1048C800C3F814223B681B6A012B07D17B69D3F814
:1048D8001C22FB681A437B69C3F81C227B69D3F846
:1048E800003223F001027B69C3F80022002306E0AE
:1048F8007B685B6A43F480227B685A62012318460E
:104908001C37BD465DF8047B704780B584B000AFA6
:1049180078607B6893F82030DBB2012B2ED17B685E
:10492800022283F820207B681B681A687B681B6852
:1049380022F001021A60FEF749FFF86012E0FEF764
:1049480045FF0246FB68D31A0A2B0BD97B685B6AC2
:1049580043F400327B685A627B68052283F8202082
:10496800012312E07B681B685B6803F00103002BDE
:10497800E5D17B6800225A62002306E07B685B6A07
:1049880043F400227B685A62012318461037BD465B
:1049980080BD80B489B000AFF860B9607A603B60D0
:1049A800FB6893F82030FB77FB681B689B68BB614A
:1049B800FB7F012B03D0FB7F022B40F0B880BB6943
:1049C80003F08063002B0AD1BB6903F00063002B5E
:1049D80005D1BB6903F08053002B00F0A080BB69B0
:1049E8001B0E03F003037B617B69022B07D9FB686D
:1049F8005B6A43F40002FB685A6201239EE00122CD
:104A08007B699A403B681A60BB689B68002B0DD194
:104A1800BB681B685A05BB68DB68F96809681A43F4
:104A28007B6918331B010B441A600FE0BB685B6895
:104A3800DA00BB689B681A43BB68DB68F9680968D9
:104A48001A437B6918331B010B441A60FB68196809
:104A5800BB681A697B6918331B010B4404331A605D
:104A6800BB681B7D012B11D1FB681A687B69183361
:104A78001B01134404331B68FA68116843F48072FD
:104A88007B6918331B010B4404331A607B680733B6
:104A98001B781A067B6806331B781B041A437B684D
:104AA80005331B781B0213437A68043212781046C8
:104AB800FA68116843EA00027B691B010B4403F59D
:104AC800C6731A607B6803331B781A067B68023347
:104AD8001B781B041A437B6801331B781B021343A2
:104AE8007A6812781046FA68116843EA00027B690E
:104AF8001B010B4403F5C4731A60FB681A687B69D1
:104B080018331B0113441B68FA68116843F001024B
:104B18007B6918331B010B441A6000230EE0FB6805
:104B28005B6A43F40012FB685A62012306E0FB68E3
:104B38005B6A43F48022FB685A62012318462437D3
:104B4800BD465DF8047B704780B487B000AFF8605D
:104B5800B9607A603B60FB6893F82030FB75FB7D99
:104B6800012B03D0FB7D022B40F0F380BB68002BA8
:104B78000ED1FB681B68DB6803F00303002B16D11A
:104B8800FB685B6A43F40012FB685A620123E7E0A2
:104B9800FB681B681B6903F00303002B07D1FB6844
:104BA8005B6A43F40012FB685A620123D8E0FB6891
:104BB8001A68BB681B331B0113441B6803F004020B
:104BC8007B689A607B689B68002B0CD1FB681A682D
:104BD800BB681B331B0113441B685B0DC3F30A023C
:104BE8007B681A600BE0FB681A68BB681B331B0103
:104BF80013441B68DB0823F060427B685A60FB683B
:104C08001A68BB681B331B0113441B6803F00202BC
:104C18007B68DA60FB681A68BB681B331B011344A6
:104C280004331B6803F00F027B681A61FB681A687B
:104C3800BB681B331B01134404331B681B0ADAB21D
:104C48007B689A61FB681A68BB681B331B011344B5
:104C580004331B681B0C9AB27B685A61FB681A689C
:104C6800BB681B01134403F5DC731B68DAB23B68AD
:104C78001A70FB681A68BB681B01134403F5DC73E0
:104C88001B681A0A3B680133D2B21A70FB681A68AB
:104C9800BB681B01134403F5DC731B681A0C3B68E3
:104CA8000233D2B21A70FB681A68BB681B0113443E
:104CB80003F5DC731B681A0E3B680333D2B21A7013
:104CC800FB681A68BB681B01134403F5DE731A6896
:104CD8003B680433D2B21A70FB681A68BB681B01C0
:104CE800134403F5DE731B681A0A3B680533D2B216
:104CF8001A70FB681A68BB681B01134403F5DE735E
:104D08001B681A0C3B680633D2B21A70FB681A6823
:104D1800BB681B01134403F5DE731B681A0E3B685E
:104D28000733D2B21A70BB68002B08D1FB681B6826
:104D3800DA68FB681B6842F02002DA6007E0FB686B
:104D48001B681A69FB681B6842F020021A6100237D
:104D580006E0FB685B6A43F48022FB685A62012321
:104D680018461C37BD465DF8047B704780B485B093
:104D780000AF786039607B6893F82030FB73FB7B69
:104D8800012B02D0FB7B022B09D17B681B68596978
:104D98007B681B683A680A435A61002306E07B680F
:104DA8005B6A43F480227B685A62012318461437F1
:104DB800BD465DF8047B704780B58AB000AF786067
:104DC80000237B627B681B685B693B627B681B68AE
:104DD8005B68FB617B681B689B68BB617B681B68C1
:104DE800DB687B617B681B681B693B617B681B68B0
:104DF8009B69FB603B6A03F00103002B7CD0BB6915
:104E080003F00103002B23D07B681B6801229A6002
:104E1800BB6903F00203002B03D0786800F083F924
:104E280016E0BB6903F00403002B04D07B6A43F44B
:104E380000637B620CE0BB6903F00803002B04D01D
:104E48007B6A43F480537B6202E0786800F089F95A
:104E5800BB6903F48073002B24D07B681B684FF474
:104E680080729A60BB6903F40073002B03D07868E2
:104E780000F063F916E0BB6903F48063002B04D0EB
:104E88007B6A43F400537B620CE0BB6903F4006364
:104E9800002B04D07B6A43F480437B6202E078688D
:104EA80000F069F9BB6903F48033002B24D07B68D8
:104EB8001B684FF480329A60BB6903F40033002BFF
:104EC80003D0786800F043F916E0BB6903F4802347
:104ED800002B04D07B6A43F400437B620CE0BB697F
:104EE80003F40023002B04D07B6A43F480337B62F5
:104EF80002E0786800F049F93B6A03F00803002BE8
:104F08000CD07B6903F01003002B07D07B6A43F4B5
:104F180000737B627B681B681022DA603B6A03F0CF
:104F28000403002B0BD07B6903F00803002B06D089
:104F38007B681B680822DA607868FCF733FF3B6AF5
:104F480003F00203002B09D07B681B68DB6803F0C1
:104F58000303002B02D07868FCF78CF83B6A03F057
:104F68004003002B0CD03B6903F01003002B07D043
:104F78007B6A43F480637B627B681B6810221A613A
:104F88003B6A03F02003002B0BD03B6903F00803B6
:104F9800002B06D07B681B6808221A61786800F02D
:104FA80008F93B6A03F01003002B09D07B681B68E3
:104FB8001B6903F00303002B02D0786800F0EFF8B8
:104FC8003B6A03F40033002B0BD0FB6903F010039A
:104FD800002B06D07B681B6810225A60786800F0A6
:104FE800F2F83B6A03F48033002B0BD0FB6903F023
:104FF8000803002B06D07B681B6808225A60786873
:1050080000F0EBF83B6A03F40043002B7BD0FB690C
:1050180003F00403002B72D03B6A03F48073002B67
:1050280008D0FB6803F00103002B03D07B6A43F030
:1050380001037B623B6A03F40073002B08D0FB6812
:1050480003F00203002B03D07B6A43F002037B6268
:105058003B6A03F48063002B08D0FB6803F0040369
:10506800002B03D07B6A43F004037B623B6A03F4A2
:105078000063002B43D0FB6803F07003002B3ED085
:10508800FB6803F07003602B2BD0602B2ED8502BBD
:1050980022D0502B2AD8402B19D0402B26D8302B81
:1050A80010D0302B22D8102B02D0202B05D01DE099
:1050B8007B6A43F008037B6219E07B6A43F01003C4
:1050C8007B6214E07B6A43F020037B620FE07B6A1B
:1050D80043F040037B620AE07B6A43F080037B6213
:1050E80005E07B6A43F480737B6200E000BF7B6865
:1050F8001B689A697B681B6822F070029A617B685A
:105108001B6804225A607B6A002B08D07B685A6AA5
:105118007B6A1A437B685A62786800F068F800BFB7
:105128002837BD4680BD80B483B000AF786000BF2B
:105138000C37BD465DF8047B704780B483B000AF80
:10514800786000BF0C37BD465DF8047B704780B4BB
:1051580083B000AF786000BF0C37BD465DF8047BB4
:10516800704780B483B000AF786000BF0C37BD468D
:105178005DF8047B704780B483B000AF786000BFEF
:105188000C37BD465DF8047B704780B483B000AF30
:10519800786000BF0C37BD465DF8047B704780B46B
:1051A80083B000AF786000BF0C37BD465DF8047B64
:1051B800704780B483B000AF786000BF0C37BD463D
:1051C8005DF8047B704780B483B000AF786000BF9F
:1051D8000C37BD465DF8047B704780B483B000AFE0
:1051E800786000BF0C37BD465DF8047B704780B41B
:1051F80083B000AF786000BF0C37BD465DF8047B14
:105208007047000080B485B000AF78607B6803F019
:105218000703FB600C4BDB68BB60BA684FF6FF0303
:105228001340BB60FB681A02BB68134343F0BF63BB
:1052380043F40033BB60044ABB68D36000BF143733
:10524800BD465DF8047B704700ED00E080B400AF18
:10525800044BDB681B0A03F007031846BD465DF8DC
:10526800047B704700ED00E080B483B000AF0346D4
:10527800FB7197F90730002B0BDBFB7903F01F025A
:10528800074997F907305B09012000FA02F241F853
:10529800232000BF0C37BD465DF8047B704700BF74
:1052A80000E100E080B483B000AF03463960FB71D1
:1052B80097F90730002B0ADB3B68DAB20C4997F9FB
:1052C80007301201D2B20B4483F800230AE03B688E
:1052D800DAB20849FB7903F00F03043B1201D2B29A
:1052E8000B441A7600BF0C37BD465DF8047B704747
:1052F80000E100E000ED00E080B489B000AFF860A4
:10530800B9607A60FB6803F00703FB61FB69C3F1CE
:105318000703042B28BF0423BB61FB690433062B56
:1053280002D9FB69033B00E000237B614FF0FF32A9
:10533800BB6902FA03F3DA43BB681A407B699A40F7
:105348004FF0FF317B6901FA03F3D9437B680B40C7
:10535800134318462437BD465DF8047B70470000A8
:1053680080B400AFBFF34F8F00BF064BDB6803F478
:10537800E0620449044B1343CB60BFF34F8F00BF77
:1053880000BFFDE700ED00E00400FA0580B582B03B
:1053980000AF78607B68013BB3F1807F01D30123C4
:1053A8000FE00A4A7B68013B53600F214FF0FF3042
:1053B800FFF778FF054B00229A60044B07221A601A
:1053C800002318460837BD4680BD00BF10E000E046
:1053D80080B582B000AF78607868FFF713FF00BF30
:1053E8000837BD4680BD80B586B000AF0346B960BA
:1053F8007A60FB7300237B61FFF728FF78617A6886
:10540800B9687869FFF778FF024697F90F301146B7
:105418001846FFF747FF00BF1837BD4680BD80B567
:1054280082B000AF0346FB7197F907301846FFF7C3
:105438001BFF00BF0837BD4680BD80B500AFFFF732
:105448008FFF80B582B000AF78607868FFF79EFF65
:10545800034618460837BD4680BD000080B487B0B3
:1054680000AF7860396000237B6154E13B681A68BB
:1054780001217B6901FA03F31340FB60FB68002BF1
:1054880000F046813B685B6803F00303012B05D0FD
:105498003B685B6803F00303022B30D17B689B6891
:1054A8003B617B695B00032202FA03F3DB433A6941
:1054B80013403B613B68DA687B695B0002FA03F3DF
:1054C8003A6913433B617B683A699A607B685B6819
:1054D8003B6101227B6902FA03F3DB433A6913401B
:1054E8003B613B685B681B0903F001027B6902FAB8
:1054F80003F33A6913433B617B683A695A603B6836
:105508005B6803F00303032B17D07B68DB683B6100
:105518007B695B00032202FA03F3DB433A69134019
:105528003B613B689A687B695B0002FA03F33A695E
:1055380013433B617B683A69DA603B685B6803F058
:105548000303022B23D17B69DA087B68083253F8FE
:1055580022303B617B6903F007039B000F2202FAAC
:1055680003F3DB433A6913403B613B681A697B6983
:1055780003F007039B0002FA03F33A6913433B6104
:105588007B69DA087B680832396943F822107B683E
:105598001B683B617B695B00032202FA03F3DB4370
:1055A8003A6913403B613B685B6803F003027B691F
:1055B8005B0002FA03F33A6913433B617B683A697B
:1055C8001A603B685B6803F44033002B00F0A0804E
:1055D800584B9B69574A43F001039361554B9B69AC
:1055E80003F00103BB60BB68534A7B699B08023325
:1055F80052F823303B617B6903F003039B000F22C1
:1056080002FA03F3DB433A6913403B617B68B3F169
:10561800904F19D07B68494A934213D07B68484A17
:1056280093420DD07B68474A934207D07B68464A2D
:10563800934201D1042308E0052306E0032304E094
:10564800022302E0012300E000237A6902F003024A
:10565800920093403A6913433B6137497B699B0841
:1056680002333A6941F82320384B1B683B61FB68D9
:10567800DB433A6913403B613B685B6803F4803362
:10568800002B03D03A69FB6813433B612F4A3B69FF
:1056980013602E4B5B683B61FB68DB433A69134040
:1056A8003B613B685B6803F40033002B03D03A6925
:1056B800FB6813433B61254A3B695360234B9B6856
:1056C8003B61FB68DB433A6913403B613B685B68BD
:1056D80003F48013002B03D03A69FB6813433B6142
:1056E8001A4A3B699360194BDB683B61FB68DB43F3
:1056F8003A6913403B613B685B6803F40013002B75
:1057080003D03A69FB6813433B61104A3B69D36095
:105718007B6901337B613B681A687B6922FA03F372
:10572800002B7FF4A3AE00BF00BF1C37BD465DF859
:10573800047B70470010024000000140000400484C
:1057480000080048000C0048001000480004014010
:1057580080B483B000AF78600B467B8013467B70C3
:105768007B78002B03D07A887B689A6102E07A887C
:105778007B689A6200BF0C37BD465DF8047B7047B2
:1057880080B485B000AF78600B467B807B685B692E
:10579800FB607A88FB6813401A04FB68D9437B884E
:1057A8000B401A437B689A6100BF1437BD465DF809
:1057B800047B704780B582B000AF78607B68002BAF
:1057C80001D1012381E07B6893F84130DBB2002BE3
:1057D80006D17B68002283F840207868FCF728FC13
:1057E8007B68242283F841207B681B681A687B68E1
:1057F8001B6822F001021A607B685A687B681B6884
:1058080022F070621A617B681B689A687B681B6863
:1058180022F400429A607B68DB68012B07D17B6821
:105828009A687B681B6842F400429A6006E07B68CD
:105838009A687B681B6842F404429A607B68DB685C
:10584800022B04D17B681B684FF400625A607B68A6
:105858001B685B687A68126843F0007343F400437E
:1058680053607B681B68DA687B681B6822F4004217
:10587800DA607B681A697B685B6942EA03017B68C6
:105888009B691A027B681B680A43DA607B68D969DE
:105898007B681A6A7B681B680A431A607B681B6806
:1058A8001A687B681B6842F001021A607B68002254
:1058B8005A647B68202283F841207B6800221A639F
:1058C8007B68002283F84220002318460837BD462B
:1058D80080BD000080B588B002AFF8600846114668
:1058E8001A4603467B810B463B811346FB80FB68C7
:1058F80093F84130DBB2202B40F0F9803B6A002B53
:1059080002D0BB8C002B05D1FB684FF400725A649F
:105918000123EDE0FB6893F84030012B01D102230D
:10592800E6E0FB68012283F84020FDF74FFF78612D
:105938007B690093192301224FF40041F86800F0B5
:10594800C3FA0346002B01D00123D1E0FB682122D2
:1059580083F84120FB68402283F84220FB6800223C
:105968005A64FB683A6A5A62FB68BA8C5A85FB68C3
:1059780000225A63F8883A8979897B690193BB6A5E
:1059880000930346F86800F0D3F90346002B05D0CE
:10599800FB68002283F840200123A9E0FB685B8DA7
:1059A8009BB2FF2B0ED9FB68FF221A85FB681B8D63
:1059B800DAB27989002300934FF08073F86800F019
:1059C800B5FB0FE0FB685B8D9AB2FB681A85FB6834
:1059D8001B8DDAB27989002300934FF00073F868C1
:1059E80000F0A4FB7A69B96AF86800F0ADFA0346DA
:1059F800002B01D001237BE0FB685B6A1A78FB6807
:105A08001B689A62FB685B6A5A1CFB685A62FB68EF
:105A18005B8D9BB2013B9AB2FB685A85FB681B8D74
:105A2800013B9AB2FB681A85FB685B8D9BB2002B21
:105A380034D0FB681B8D002B30D17B690093BB6A87
:105A480000228021F86800F03FFA0346002B01D0BD
:105A580001234DE0FB685B8D9BB2FF2B0ED9FB68E1
:105A6800FF221A85FB681B8DDAB27989002300931F
:105A78004FF08073F86800F059FB0FE0FB685B8D0E
:105A88009AB2FB681A85FB681B8DDAB27989002304
:105A980000934FF00073F86800F048FBFB685B8DDB
:105AA8009BB2002B9ED17A69B96AF86800F08CFA2B
:105AB8000346002B01D001231AE0FB681B68202253
:105AC800DA61FB681B685968FB681A680A4B0B4067
